:020000040800F2
:10000000300500209D0100089714000849130008DE
:10001000951400082F040008371B0008000000009A
:100020000000000000000000000000006116000851
:10003000310400080000000099140008631600084D
:10004000B7010008B7010008B7010008B7010008B0
:10005000B7010008B701000833040008B701000821
:10006000B7010008B7010008B7010008B701000890
:10007000B7010008B7010008B7010008B701000880
:10008000B7010008B7010008B7010008B701000870
:10009000B7010008B7010008B7010008B701000860
:1000A000B7010008B7010008B7010008B701000850
:1000B000B7010008B7010008B7010008B701000840
:1000C000B7010008B7010008B70100089D14000837
:1000D000B7010008B7010008B7010008B701000820
:1000E000B7010008B7010008B7010008B701000810
:1000F000B7010008B7010008B7010008B701000800
:10010000B7010008B7010008B7010008B7010008EF
:1001100041170008B7010008B7010008B70100083F
:10012000B7010008B7010008B7010008B7010008CF
:10013000B7010008B7010008B7010008B7010008BF
:10014000B7010008B7010008B7010008B7010008AF
:10015000B7010008B7010008B7010008B70100089F
:10016000B7010008B7010008B7010008B70100088F
:10017000B7010008B7010008B7010008000000003F
:10018000B7010008B7010008DFF80CD000F0DCF878
:1001900000480047B120000830050020064880478D
:1001A00006480047FEE7FEE7FEE7FEE7FEE7FEE75C
:1001B000FEE7FEE7FEE7FEE7ED160008890100080E
:1001C0002DE9F05F0546002092469B46884606468C
:1001D000814640241BE0284641464746224600F01F
:1001E0006BF853465A46C01A914110D3114618462F
:1001F000224600F052F82D1A67EB01084F462246BE
:100200000120002100F049F817EB00094E41201EA3
:10021000A4F10104DFDC484631462A464346BDE8E6
:10022000F09FD2B201E000F8012B491EFBD27047CB
:100230000022F6E710B513460A4604461946FFF7B2
:10024000F0FF204610BD421C10F8011B0029FBD115
:10025000801A704770B5064601F092FC04680546A6
:100260000A220021304600F037F82C6070BD30B50E
:100270000B46014600202022012409E021FA02F564
:100280009D4205D303FA02F5491B04FA02F52844FE
:10029000151EA2F10102F1DC30BD202A04DB203A58
:1002A00000FA02F1002070479140C2F1200320FAC9
:1002B00003F3194390407047202A04DB203A21FAC7
:1002C00002F00021704721FA02F3D040C2F120026F
:1002D00091400843194670472DE9F04791460F4673
:1002E00080460446002614F8015B2DB100F03EF86C
:1002F0000068405DC007F6D12B2D02D02D2D18D0FF
:10030000641E4A463946204600F034F827B1396861
:10031000A14201D1C7F8008071054FF002040BD54E
:100320004042002803DD01F02BFC0460A007BDE87B
:10033000F08746F48066E4E70028F8DA01F020FC54
:1003400004606FF00040F2E7064C074D06E0E068FD
:1003500040F0010394E8070098471034AC42F6D30C
:10036000FFF716FF3C2B00085C2B00080048704785
:10037000382B00082DE9F05F8246007800271546EB
:100380008B460AF10104B946302801D09DB113E033
:1003900014F8010B0127782803D0582801D045B163
:1003A0000AE00DB1102D07D10027102514F8010B1C
:1003B00002E0082500E00A250026B0460EE005FB15
:1003C000080005FB06F1012701EB10461FFA80F833
:1003D000B6F5803F00D3B94614F8010B294600F06A
:1003E00018F80028EBDABBF1000F05D00FB1641E3E
:1003F00000E05446CBF80040B9F1000F06D001F000
:10040000BFFB02210160C81EBDE8F09F48EA06401C
:10041000FAE73A2800D2303820F02002412A01D3EE
:10042000A2F13700884201D34FF0FF307047FEE75A
:100430007047012000F028B8704790F83510022965
:1004400003D08021416501207047052180F83510D7
:100450000068016821F00101016000207047000080
:1004600070B5044600F006F90546601C02D0044849
:100470000078044400F0FEF8401BA042FAD370BD9F
:100480000C00002070470000044910B50A680242C1
:1004900002D00860FFF7F6FF10BD0000143C0140D9
:1004A0002DE9F84FDFF87CB100224FF001084FF042
:1004B000030A4FF00F090BF1040E00BF0B6808FA96
:1004C00002F42340A3426ED14D68022D01D0122DBB
:1004D0000ED1D50800EB850CDCF820505607F70E3E
:1004E00009FA07F6B5430E69BE402E43CCF82060EA
:1004F000066855000F790AFA05FC07F0030726EA9B
:100500000C06AF40374307604E68012E05D0022E1F
:1005100003D0112E01D0122E0ED18668CF6826EAA4
:100520000C06AF40374387604668A6430C79C4F396
:100530000014944034434460C6688C6826EA0C0674
:10054000AC403443C4604C68E40065D5364C256843
:1005500045F480452560246822F0030504F48044B6
:100560000094324C2E19D6F8084895072F0F09FA37
:1005700007F5AC432E4DA84201D1002524E02D4DB6
:10058000A84201D101251FE02B4DA84201D102252F
:100590001AE02A4DA84201D1032515E0284DA842B2
:1005A00002D1042510E037E0264DA84201D10525EF
:1005B0000AE0254DA84201D1062505E0234DA842B9
:1005C00001D1072500E00825BD402543C6F808589D
:1005D000DBF800405D464E689C43F60300D51C43A3
:1005E0002C60DEF8004075464E689C43B60300D58B
:1005F0001C432C600B4D08352C684E689C43F6025A
:1006000000D51C432C60074D0C352C684E689C436C
:10061000B60200D51C432C60521C102AFFF44EAFCA
:10062000BDE8F88F003C01404438024000300140F2
:10063000000002400004024000080240000C02409A
:10064000001002400014024000180240001C02404A
:100650000069084000D001207047426931EA020277
:1006600000D10904816170470AB1816170470904B2
:10067000FBE7000001488068704700000C00002084
:100680000248816802781144816070470C000020A4
:100690000B4810B5016841F400710160016841F434
:1006A00080610160016841F480710160032000F005
:1006B0006FF8002000F006F800F024F8002010BDCC
:1006C000003C024070B50D4D04464FF47A71287815
:1006D000B1FBF0F00A490968B1FBF0F000F032FC20
:1006E00048B9102C07D200222146501E00F030F8E5
:1006F00000206C6070BD012070BD00000C00002067
:10070000180000200A4808B5016841F480410160E2
:10071000006800F4804000900548001F016841F027
:1007200080510160006800F08050009008BD00001A
:1007300044380240002809DB00F01F0201219140EB
:100740004009800000F1E020C0F80011704700006F
:10075000F0B40E4B1B680C46C3F30223C3F107052C
:10076000042D00D90425191D072901D2002300E01A
:10077000DB1E012606FA05F1491E214099409E40E4
:10078000761E16403143F0BC01F0EAB90CED00E0F2
:10079000064900F0070208684FF6FF03184040EAD8
:1007A0000220034A10430860704700000CED00E08F
:1007B0000000FA052DE9F0470E46050065D0DFF888
:1007C0001481D8F80000F7B200F00F00B04207D251
:1007D00088F80070D8F8000000F00F00B04254D143
:1007E00028683D4C810712D5400703D5206840F4A6
:1007F000E05020602878000703D5206840F460406E
:1008000020602068A96820F0F00008432060287864
:10081000C0072DD0304968680839012812D0022855
:1008200013D0032811D00968890700292DDA21681F
:1008300021F0030101432160FFF71CFF814641F2D3
:10084000883A0EE009688903EFE709688901ECE757
:10085000FFF710FFA0EB0901514502D90320BDE8C5
:10086000F0872068696800F00C00B0EB810FEFD1D1
:10087000D8F80010404601F00F01B14207D90770C7
:10088000006800F00F00B04201D00120E7E72878AF
:10089000400705D52068E96820F4E050084320604F
:1008A0002878000706D52068296920F4604040EACE
:1008B000C100206000F036F82168084AC1F3031136
:1008C000515CC840064908600020FFF7FBFE00208D
:1008D000C5E70000003C0240083802409C2A00089E
:1008E000180000200448054900680968044AC1F35B
:1008F0008221515CC840704718000020083802402F
:10090000AC2A00080448054900680968044AC1F394
:100910004231515CC840704718000020083802403E
:10092000AC2A0008154810B5006810F00C021448F5
:1009300013D04110042A0FD0082A0ED10F4C241FC7
:100940002268236802F03F025B0207D52068C0F3EB
:100950008810A0FB010106E0084610BD2168C1F324
:100960008811A1FB00010023FFF72AFC2168C1F3D5
:100970000141491C4900B0FBF1F010BD08380240AC
:100980000024F4002DE9F84F050076D02878DFF830
:10099000F8B2BE4CC00749D0DBF800105846C1F38E
:1009A0008101012908D00068C0F3810002280AD122
:1009B000201D0068400206D52068800336D568688F
:1009C0000028E2D032E06868B0F5803F10D0B0F582
:1009D000A02F206810D020F480302060206820F400
:1009E000802020606868A0B1FFF744FE06460CE056
:1009F000206840F48030F4E740F480202060F7E77E
:100A0000FFF738FE801B642873D820688003F7D571
:100A10000CE0FFF72FFE064605E000BFFFF72AFEB9
:100A2000801B6428F0D820688003F7D42878DFF88A
:100A3000608280074FF000093ED5DBF80010584671
:100A400011F00C0F09D00068C0F3810002280BD10F
:100A50008D48001F0068400206D42068800715D525
:100A6000E868012809D111E0E868B8B10120C8F8A8
:100A70000000FFF7FFFD064605E002E1FFF7FAFD83
:100A8000801B0228C0D820688007F7D52068296914
:100A900020F0F80040EAC10020600DE0C8F80090A6
:100AA000FFF7E8FD064604E0FFF7E4FD801B02289F
:100AB0001FD820688007F7D42878000722D5724E07
:100AC000744869696C3671B101210160FFF7D2FD8C
:100AD000074604E0FFF7CEFDC01B022809D83068A6
:100AE0008007F7D50EE0C0F80090FFF7C3FD07467A
:100AF00005E083E0FFF7BEFDC01B02287ED830680A
:100B00008007F7D42878400768D5DFF87CA1002754
:100B10000AF1380ADAF80000C0000BD4DAF8001045
:100B200041F08051CAF80010DAF80000012700F007
:100B300080500090584E3068C00510D4306840F4A2
:100B400080703060FFF796FD009005E0FFF792FDA2
:100B50000099401A022851D83068C005F6D54A4E8F
:100B6000A868683601280FD00528306810D020F01A
:100B700001003060306820F004003060A868B8B12F
:100B8000FFF778FD00900FE0306840F00100F4E7D7
:100B900040F004003060F7E7FFF76CFD0099411A60
:100BA00041F28830814264D830688007F4D50EE085
:100BB000FFF760FD009007E0FFF75CFD0099411A28
:100BC00041F28830814254D830688007F4D42FB184
:100BD000DAF8001021F08051CAF80010A869C0B3FB
:100BE000DBF80010C1F3810102294AD002284846EF
:100BF00007D0C8F86000FFF73DFD00E039E005468A
:100C00003AE04746C8F86000FFF734FD064604E0C6
:100C1000FFF730FD801B02282BD820688001F7D415
:100C2000D5E907010843A96A1C4A490802EB0141BA
:100C30006A6A41EA8211084395F82C1040EA016182
:100C40001148001F016001203866FFF713FD0546BB
:100C500005E014E0FFF70EFD401B022809D82068CC
:100C60008001F7D50BE000BFFFF704FD401B022811
:100C700002D90320BDE8F88F20688001F4D4002059
:100C8000F8E70120F6E7000008380240003802408B
:100C900000004742800E4742007000400000FFFF06
:100CA0007047000038B5016804464A688868C04348
:100CB000430606D5C30704D1D3435B0601D4216C98
:100CC00005E0830708D4D3431B0605D4616C01B04B
:100CD0002046BDE830400847830603D5430601D5CA
:100CE000C30551D4D3439B064ED443060AD494F88B
:100CF0005130032B49D0636D43F004036365CB6827
:100D00008B680093830609D4636D43F00103636528
:100D10008B6800930B6823F040030B60C00506D47A
:100D2000606D40F008006065206880680090606D2C
:100D3000002829D02068416821F0E00141600120AD
:100D400084F85100900701D4D00722D02068416870
:100D500021F003014160114DE06C40B10565E06C8C
:100D6000FFF76BFB18B1606D40F040006065A06C50
:100D7000002809D00565A06CFFF75FFB002803D0B1
:100D8000606D40F04000606538BDC86888680090BC
:100D900038BD2046FFF784FF38BD00002515000848
:100DA00070B5040005D00025A56294F8510010B17B
:100DB00006E0012070BD84F85050204600F030F865
:100DC000022084F851002068016821F04001016090
:100DD000D4E901010843D4E90312114308436169CE
:100DE0000843218B01F400710843E1690843216A3B
:100DF0000843A16A084321680860A069042101EA48
:100E00001040616A0843216848602068C16921F484
:100E10000061C1616565012084F85100002070BD4A
:100E200010B586B0044614216846FFF701FA174949
:100E30002068884228D116480021026842F4805276
:100E40000260006800F48050059011481438026870
:100E500042F001020260006800F001000590E0200D
:100E600000900220CDE901010320039005200490A9
:100E700069460848FFF714FB002211462320FFF7BC
:100E800067FC2320FFF756FC06B010BD0030014080
:100E9000443802400000024030B590F85030002441
:100EA000012B0BD0012380F85030002341B13AB11F
:100EB00090F85150012D05D002242AE0022030BDC7
:100EC000012426E0032580F85150436501638286A2
:100ED000C28683638387C3870364C16809B10F49EE
:100EE00000E00F4941648168B1F5004F04D1016809
:100EF0000A6842F480420A6001684A6842F0A0022F
:100F00004A6001680A68520603D40A6842F0400247
:100F10000A6080F85030204630BD00008D15000872
:100F2000AD150008054900680968884204D101220E
:100F300010210348FFF798BB70470000980000207D
:100F40000000024010B5401EB0F1807F01D30120A7
:100F500010BD4FF0E02460610F21601700F000FE2B
:100F60000020A06107202061002010BD704710F80C
:100F7000391F40780843704770B50268044610680E
:100F8000D168536910F00F0F50D003F0010501F440
:100F9000907635435DD0C20705D0CA0503D5E26B14
:100FA00042F00102E263420705D5DA0703D0E26BA3
:100FB00042F00202E263820705D5DA0703D0E26B52
:100FC00042F00402E263020705D5DA0703D0E26BC0
:100FD00042F00802E263E26B002A33D0800604D5B7
:100FE000880602D5204600F0D4FB20684069E16BFA
:100FF000C0F38010090700D428B3204600F0AEFBF0
:101000002068416949061AD5416921F040014161D2
:10101000606BA0B11B490165606BFFF70EFA0028F9
:1010200010D0606B016DBDE870400847830610D595
:101030008B060ED52046BDE8704000F0AABB2046C6
:10104000FFF794FF70BD2046FFF790FF0020E0639C
:1010500070BD030606D50B0604D52046BDE87040DA
:1010600000F038BD4006F3D54806F1D5D1682046DA
:1010700021F04001D160202184F8391000F063F99B
:1010800070BD00004D17000870B5040004D094F83E
:101090003900002510B106E0012070BD84F83850F9
:1010A000204600F023F8242084F839002068C16825
:1010B00021F40051C160204600F0B6FB20680169B0
:1010C00021F4904101612068416921F02A014161C8
:1010D0002068C16841F40051C160E563202084F8B4
:1010E000390084F83A00002070BD000010B586B0C9
:1010F000044614216846FFF79BF818492068884287
:1011000029D11748016841F400210160006800F40A
:101110000020059012481038016841F00401016078
:101120000068694600F0040005904FF440600090AC
:1011300002200190012002900320039008200490D7
:101140000848FFF7ADF9002211463420FFF700FBF5
:101150003420FFF7EFFA06B010BD0000004C00404D
:10116000403802400008024090F83A30202B22D14B
:10117000F9B1F2B190F83830012B1CD08162828530
:10118000C2850021C163222280F83A2080F83810FD
:101190000168CA6842F48072CA6001684A6942F014
:1011A00001024A610068C16841F02001C16000206D
:1011B00070470120704702207047000030B44F494B
:1011C0000068096888426ED14D484179012361B1B8
:1011D000017A612908D0017A622905D0017A632950
:1011E00002D0017A642900D103700178002239B35A
:1011F000817879B1817819B3017A424C302919D3B9
:10120000017A392916D8057A01790C44491C0171F3
:10121000257022E0017A3B4C0A3C302902D3017A46
:101220003929F0D9017A08290BD0017A0A2914D179
:10123000837011E0017A082903D0017A0A290AD0C3
:101240000BE00179214401F8012C017929B10179E0
:10125000491E017101E002700271817949B1017A80
:10126000612905D0017A622902D0017A632900D16F
:101270004370417821B3037A21490931722B10D090
:10128000037A672B10D0047A0223632C13D0047ADC
:10129000612C12D0037A082B13D0017A0A291FD0AF
:1012A00023E0722201E027E06722C379CA54C179A2
:1012B000491CC17119E0632200E061220A70C37108
:1012C00013E00B78612B02D00B78632B00D1C27135
:1012D000C37913B1C3795B1EC371C0790A5404E0AA
:1012E000C179022901D3C27142700549012230BC83
:1012F00008310248FFF738BF30BC7047F0000020CB
:10130000000000208E00002090F83930202B18D1EA
:10131000A9B1A2B190F83830012B12D001628284B9
:10132000C2840021C163212280F8392080F838105E
:101330000068C16841F08001C16000207047012051
:101340007047022070477047FEE700002DE9F0412A
:1013500086B014216846FEF76BFF2B480024016815
:1013600041F080010160016801F080010591016890
:1013700041F001010160016801F00101059101687E
:1013800041F008010160016801F008010591016860
:1013900041F00401016000681C4F00F0040005905A
:1013A000012210213846FFF75FF9DFF864804FF41F
:1013B0007046002231464046FFF756F90125154890
:1013C0000095CDE9010469463846FFF769F8102019
:1013D000CDE900050320CDE9024069463846FFF714
:1013E0005FF80096CDE90154694640460394FFF743
:1013F00057F8002211460620FFF7AAF90620FFF74A
:1014000099F906B0BDE8F081303802400000024092
:10141000000C0240000011100F4810B50D4901608A
:101420004FF48271416000218160C1604FF400720D
:101430000161C0E90512C1610162416281620A2154
:10144000C162FFF7ADFC002803D0BDE81040FEF7F5
:10145000F3BF10BD00300140980000200C4810B5CB
:101460000A4901604FF4E1314160002181600C22A2
:10147000C160C0E904128161C161FFF705FE002867
:1014800003D0BDE81040FEF7D7BF10BD004C0040B0
:10149000F0000020FEE77047704700000148FFF7AA
:1014A00001BC00009800002038B504461C4845F6F1
:1014B000C0510068B0FBF1F0642148430090FFF791
:1014C000D9F8024620680099A1B1491E00918168AF
:1014D0008907F8D5416821F0A001416064212046C8
:1014E00000F028F818B1606D40F020006065A06839
:1014F00028B108E0616D41F020016165EAE72068EC
:10150000C16880680090012084F85100606D002857
:10151000204602D0FFF7C4FB38BDFFF703FD38BDFE
:101520001800002010B5806B0021C187C186FFF72D
:10153000B7FB10BD38B504461248134B0068B0FB2A
:10154000F3F04FF47A73584300906068B0F5827FEF
:101550000DD10B46009200228021204600F036F883
:1015600070B1606D40F020006065032038BD0098C8
:1015700030B1401E009020688068C0430006F6D558
:10158000002038BD1800002000366E01016B026893
:101590000988D160016B891C0163C18E491EC18617
:1015A000C18E002901D1FFF77FBF7047016B026830
:1015B00009781173016B491C0163C18E491EC186F4
:1015C000C18E002901D1FFF76FBF70472DE9F041AF
:1015D0001D4617460E460446DDF8188008E0681CD4
:1015E00006D0FFF747F8A0EB0800A8420BD255B190
:1015F0002068806836EA000030D00020B842EED182
:101600000020BDE8F0812068416821F0E0014160E0
:101610006068B0F5827F0BD1A068B0F5004F02D0B2
:10162000B0F5806F04D12068016821F040010160AD
:10163000A06AB0F5005F09D12068016821F400516B
:1016400001602068016841F400510160012084F8C4
:101650005100002084F850000320D2E70120CDE79C
:101660007047FFF70DB8000030B593B030216846E1
:10167000FEF7DEFD14210CA8FEF7DAFD194800255F
:10168000016841F080510160006800F080501190C5
:101690001548016841F4804101600068022400F4AB
:1016A0008040119001200090000401908001CDE95C
:1016B0000640082008904FF4A870CDE909040420E2
:1016C0000B906846FFF75EF90CA90F2081E8310006
:1016D0004FF4A0500F90109005210CA8FFF76AF866
:1016E00013B030BD4038024000700040104801681F
:1016F00041F4700101600F48016841F0010101608F
:101700000C4A00210832116002680B4B1A4002603B
:10171000031D0A4A1A60026822F48022026005480A
:101720000C3001600249580680390860704700009B
:1017300088ED00E000380240FFFFF6FE1030002484
:101740000148FFF719BC0000F000002010B5806BC5
:101750000021C185C184FFF709FC10BD0168CA687A
:1017600022F49072CA6001684A6922F001024A615B
:10177000202180F83A10704770B505460C4608469F
:10178000FEF761FD82B221462846BDE87040FFF7B2
:10179000BBBD10B590F83A10222901D0022010BD2F
:1017A0008168B1F5805F11D00169002901681FD0FF
:1017B000496801F07F03816A4A1C82620B70C18D07
:1017C000491E0904090CC18518D02BE00269816A01
:1017D000002A0268526805D0D2B20A80816A491C88
:1017E0008162ECE7C2F308020A80816A891CF7E78C
:1017F0004A68816A4B1C83620A70E0E70168CA6824
:1018000022F02002CA600168CA6822F48072CA60AD
:1018100001684A6922F001024A61202180F83A10E9
:10182000FFF7CCFC002010BD2DE9F0410446006814
:101830000169E26821F44051114301612169A06806
:10184000E26908436169114322680843D16849F29B
:101850000C6399430143D16020684169A26921F476
:10186000407111434161E2696425B2F5004F974828
:10187000974922684FF032083FD08A4201D0824215
:101880007CD1FFF73FF800EBC00101EB001061686D
:101890008900B0FBF1F6FFF735F800EBC00101EB72
:1018A000001061688900B0FBF1F0B0FBF5F06FF05B
:1018B0001801484306EB800108EB0110B0FBF5F07E
:1018C00000F0F006FFF71EF800EBC00101EB00107E
:1018D00061688900B0FBF1F0B0FBF5F006EB001693
:1018E000FFF710F800EBC00101EB00106168890000
:1018F000B0FBF1F7FFF706F8D2E08A4201D082424E
:101900003DD1FEF7FFFF00EBC00101EB0010616865
:101910004900B0FBF1F0B0FBF5F00601FEF7F2FF75
:1019200000EBC00101EB001061684900B0FBF1F76A
:10193000FEF7E8FF00EBC00101EB00106168490011
:10194000B0FBF1F0B0FBF5F06FF01801484307EB86
:10195000800108EBC100B0FBF5F000F0F80006EBE9
:101960004006FEF7CFFF00EBC00101EB00106168FD
:101970004900B0FBF1F7FEF7C5FF3CE055E0FEF78C
:10198000B1FF00EBC00101EB001061684900B0FB42
:10199000F1F0B0FBF5F00601FEF7A4FF00EBC0018B
:1019A00001EB001061684900B0FBF1F7FEF79AFF08
:1019B00000EBC00101EB001061684900B0FBF1F0E1
:1019C000B0FBF5F06FF01801484307EB800108EB1E
:1019D000C100B0FBF5F000F0F80006EB4006FEF7A2
:1019E00081FF00EBC00101EB001061684900B0FB12
:1019F000F1F7FEF777FF00EBC00101EB0010616823
:101A00004900B0FBF1F0B0FBF5F06FF0180148436E
:101A100007EB800108EBC100B0FBF5F000F0070018
:101A2000216830448860BDE8F081FEF75BFF00EB81
:101A3000C00101EB001061688900B0FBF1F6FEF710
:101A400051FF00EBC00101EB001061688900B0FBA1
:101A5000F1F0B0FBF5F06FF01801484306EB8001A0
:101A600008EB0110B0FBF5F000F0F006FEF73AFFCE
:101A700000EBC00101EB001061688900B0FBF1F0E0
:101A8000B0FBF5F006EB0016FEF72CFF00EBC001F3
:101A900001EB001061688900B0FBF1F7FEF722FF4F
:101AA00000EBC00101EB001061688900B0FBF1F0B0
:101AB000B0FBF5F06FF01801484307EB800108EB2D
:101AC0000110B0FBF5F000F00F00A9E70014014091
:101AD0000010014090F83910212901D002207047F0
:101AE0008168B1F5805F016A0BD04A1C026202680E
:101AF00009785160C18C491E0904090CC1840ED0BB
:101B000017E009880268C1F30801516001690029E2
:101B1000016A02D0491C0162ECE7891CFBE70168FD
:101B2000CA6822F08002CA600068C16841F04001C2
:101B3000C16000207047FEE70FB4084B10B504A940
:101B400002AA039800F030F8044602A9002000F031
:101B5000D5F8204610BC5DF814FB0000FD1C000801
:101B60000907090E002804DB00F1E02080F80014CA
:101B7000704700F00F0000F1E02080F8141D70475E
:101B8000004870471C00002002E008C8121F08C16E
:101B9000002AFAD170477047002001E001C1121FEE
:101BA000002AFBD1704700002DE9FF4F89B09B460A
:101BB0000446002506E025280BD05A460B9990478D
:101BC000641C6D1C20780028F5D10DB02846BDE8B6
:101BD000F08F0027B8460122474900E0074314F878
:101BE000013F203B02FA03F00842F7D120782E286B
:101BF00019D114F8010F47F004072A280ED06FF00E
:101C00002F022078A0F1300109290CD808EB8801B7
:101C100002EB410100EB0108641CF2E70A98641C26
:101C200050F8048B0A9020780028CED0642808D081
:101C3000692806D075281ED05A460B9990476D1C0E
:101C400058E00A994FF00A0901C90A91002802DAFE
:101C500040422D2102E0390504D52B218DF82010BA
:101C6000012103E0F90704D02021F7E78A4608AEF6
:101C70000DE00021FAE70A994FF00A0901C90A911B
:101C8000F7E74946FEF7F3FA303106F8011D002860
:101C9000F7D1ADEB060000F12009780701D44FF031
:101CA0000108C84502DDA8EB090000E000208046DD
:101CB000002706E008A85A46C05D0B9990476D1CA6
:101CC0007F1C5745F6DB04E030205A460B999047BD
:101CD0006D1CB8F10001A8F10108F5DC05E016F86B
:101CE000010B5A460B9990476D1CB9F10001A9F1FF
:101CF0000109F4DC641C65E7092801000A68531C2B
:101D00000B6010707047000010B529A12F48FFF735
:101D100013FF2E492E48FFF72FFD2D48FFF727F917
:101D20002228FAD12BA12948FFF706FF2749284886
:101D3000FFF722FD2648FFF71AF92228FAD129A138
:101D40002248FFF7F9FE21492148FFF715FD2048F9
:101D5000FFF70DF92228FAD129A11C48FFF7ECFE64
:101D60001A491B48FFF708FD1948FFF700F9222818
:101D7000FAD127A11548FFF7DFFE14491448FFF7F1
:101D8000FBFC1348FFF7F3F82228FAD127A10F48EC
:101D9000FFF7D2FE0D490E48FFF7EEFC0C48FFF7A7
:101DA000E6F82228FAD12848017A1B29FCD110BD77
:101DB000312E2053747564656E7420496E666F729F
:101DC0006D6174696F6E730A0000000020000020CE
:101DD000F000002049443A2031363532303934366B
:101DE0000A00000046756C6C204E616D653A204C0F
:101DF0006520486F616E6720506875630A000000B7
:101E000049443A2031363532313030360A0000004C
:101E100046756C6C204E616D653A20486F616E6747
:101E200020416E682051756F630A00004553433AA4
:101E30002052657475726E2070726576696F757365
:101E4000206D656E750A00000000002070B5002549
:101E5000174E29E000F000FA3446207A61280BD0B2
:101E6000207A622808D0207A632805D0207A642856
:101E700002D0207A1B28F0D1207A612806D062286F
:101E800007D0632808D064280ED108E000F080FB5A
:101E900007E000F07DFD04E000F0F4FA01E000F05E
:101EA00083F800F0F9FB2572307A1B28D2D170BD7F
:101EB000000000202DE9F0471BA12248FFF73CFE5F
:101EC00020492148FFF758FC1F48FFF750F8222807
:101ED000FAD14FF480561D4C1D4D77004FF48048C9
:101EE0004FF40049287A1B281CD031462046FEF7C3
:101EF000B4FBC820FEF7B4FA39462046FEF7ADFB26
:101F0000C820FEF7ADFA41462046FEF7A6FBC820E2
:101F1000FEF7A6FA49462046FEF79FFBC820FEF7CB
:101F20009FFADFE7BDE8F0874553433A20526574D6
:101F300075726E2070726576696F7573206D656E4F
:101F4000750A000020000020F0000020000C024074
:101F50000000002010B500F01BFA124C207A612816
:101F60001BD0207A622818D0207A632815D0207AD6
:101F70001B28F3D111E0207A612804D0622805D013
:101F800063280AD105E000F003FC04E000F0A4FBA4
:101F900001E000F065FC00F095FB207A1B28EAD1F7
:101FA00010BD00000000002070B52BA12D48FFF7E8
:101FB000C3FD2C492C48FFF7DFFB2B48FEF7D7FF6A
:101FC0002228FAD129A12748FFF7B6FD254926483E
:101FD000FFF7D2FB284C2448FEF7C9FF2228FAD18C
:101FE000A0780028FCD025A11E48FFF7A5FD1D49BB
:101FF0001D48FFF7C1FB1C48FEF7B9FF2228FAD1A4
:1020000020780028FCD117486430FEF723F90546F4
:1020100014486E30FEF71EF995FBF0F21AA1114834
:10202000FFF78AFD0F491048FFF7A6FB0E48FEF7A1
:102030009EFF2228FAD117A10A48FFF77DFD094922
:102040000948FFF799FB0848FEF791FF2228FAD1CB
:10205000207A1B28FCD170BD642E20446976696407
:10206000650A000020000020F00000204F7065721B
:10207000616E6420313A2000000000204F706572CC
:10208000616E6420323A2000526573756C743A2098
:1020900025640A004553433A2052657475726E20D8
:1020A00070726576696F7573206D656E750A0000D4
:1020B000FEF7EEFAFFF7D8FAFFF748F9FFF7CEF987
:1020C000FFF7AAF9012216491648FFF74DF800F06C
:1020D0002BF8134C00250126083C207A322812D018
:1020E00008DC1B2819D03128F7D16571A571FFF7DD
:1020F0000BFEF2E733280BD03428EED16571A671C0
:10210000FFF728FFE9E76671A571FFF79FFEE4E797
:102110006571A571FFF7CEFEDFE700F005F8DCE79B
:1021200008000020F000002010B529A13048FFF77A
:1021300003FD2F492F48FFF71FFB2E48FEF717FF1F
:102140002228FAD12CA12A48FFF7F6FC2849294871
:10215000FFF712FB2748FEF70AFF2228FAD12DA12C
:102160002348FFF7E9FC22492248FFF705FB2148F5
:10217000FEF7FDFE2228FAD12BA11D48FFF7DCFC5B
:102180001B491C48FFF7F8FA1A48FEF7F0FE222810
:10219000FAD129A11648FFF7CFFC15491548FFF7DA
:1021A000EBFA1448FEF7E3FE2228FAD126A11048E4
:1021B000FFF7C2FC0E490F48FFF7DEFA0D48FEF7A5
:1021C000D6FE2228FAD123490020087210BD000053
:1021D00043686F6F736520796F7572206F707469D3
:1021E0006F6E28312C322C332C202E2E2E290A00F3
:1021F00020000020F0000020312E2053747564650B
:102200006E7420496E666F726D6174696F6E730AC9
:1022100000000000322E204261736963204F706518
:10222000726174696F6E0A00332E2053696D706C91
:1022300065204C65640A0000342E20416476616E8E
:102240006365204C65640A00352E20417564696F12
:102250000A0000000000002010B52EA13248FFF750
:102260006BFC31493148FFF787FA3048FEF77FFEB3
:102270002228FAD12EA12C48FFF75EFC2A492B48D0
:10228000FFF77AFA2948FEF772FE2228FAD12BA12D
:102290002548FFF751FC24492448FFF76DFA2348ED
:1022A000FEF765FE2228FAD128A11F48FFF744FC5B
:1022B0001D491E48FFF760FA1C48FEF758FE222809
:1022C000FAD126A11848FFF737FC17491748FFF73E
:1022D00053FA1648FEF74BFE2228FAD122A11248E3
:1022E000FFF72AFC10491148FFF746FA0F48FEF79E
:1022F0003EFE2228FAD11FA10B48FFF71DFC0A4918
:102300000A48FFF739FA0948FEF731FE2228FAD1C8
:1023100010BD0000322E204261736963204F70654A
:10232000726174696F6E0A0020000020F0000020C6
:10233000612E20506C75730A00000000622E20533D
:10234000756274726163740A00000000632E204D90
:10235000756C7469706C650A00000000642E20447E
:1023600069766964650A0000652E204D6F64756C9E
:10237000650A00004553433A2052657475726E2019
:1023800070726576696F7573206D656E750A0000F1
:1023900010B521A12748FFF7CFFB26492648FFF7B4
:1023A000EBF92548FEF7E3FD2228FAD123A12148C5
:1023B000FFF7C2FB1F492048FFF7DEF91E48FEF772
:1023C000D6FD2228FAD120A11A48FFF7B5FB1949FA
:1023D0001948FFF7D1F91848FEF7C9FD2228FAD1AC
:1023E0001EA11448FFF7A8FB12491348FFF7C4F9D0
:1023F0001148FEF7BCFD2228FAD11BA10D48FFF7BA
:102400009BFB0C490C48FFF7B7F90B48FEF7AFFDF3
:102410002228FAD110BD0000342E20416476616E6E
:102420006365206C65642028612C20622C20632960
:102430003A0A000020000020F0000020612E205306
:102440006574204C45440A00622E20536574206454
:102450006972656374696F6E0A000000632E205311
:10246000746172740A0000004553433A2052657447
:1024700075726E2070726576696F7573206D656E0A
:10248000750A000070B52BA12E48FFF755FB2D49AA
:102490002D48FFF771F92C48FEF769FD2228FAD183
:1024A0002AA12848FFF748FB26492748FFF764F987
:1024B000294C2548FEF75BFD2228FAD1A078002898
:1024C000FCD026A11F48FFF737FB1E491E48FFF727
:1024D00053F91D48FEF74BFD2228FAD12078002839
:1024E000FCD118486430FDF7B5FE054615486E303E
:1024F000FDF7B0FE05FB00F21BA11248FFF71CFB25
:1025000010491148FFF738F90F48FEF730FD22282F
:10251000FAD118A10B48FFF70FFB0A490A48FFF749
:102520002BF90948FEF723FD2228FAD1207A1B282F
:10253000FCD170BD632E204D756C7469706C650A9A
:102540000000000020000020F00000204F706572A5
:10255000616E6420313A2000000000204F706572E7
:10256000616E6420323A2000526573756C743A20B3
:1025700025640A004553433A2052657475726E20F3
:1025800070726576696F7573206D656E750A0000EF
:1025900070B52BA12D48FFF7CFFA2C492C48FFF737
:1025A000EBF82B48FEF7E3FC2228FAD129A12748B3
:1025B000FFF7C2FA25492648FFF7DEF8284C2448E1
:1025C000FEF7D5FC2228FAD1A0780028FCD025A15E
:1025D0001E48FFF7B1FA1D491D48FFF7CDF81C480A
:1025E000FEF7C5FC2228FAD120780028FCD1174834
:1025F0006430FDF72FFE054614486E30FDF72AFEC5
:102600002A181BA11148FFF797FA10491048FFF745
:10261000B3F80F48FEF7ABFC2228FAD117A10B48FC
:10262000FFF78AFA09490A48FFF7A6F80848FEF7B3
:102630009EFC2228FAD1207A1B28FCD170BD000014
:10264000612E20506C75730A0000000020000020ED
:10265000F00000204F706572616E6420313A2000F6
:10266000000000204F706572616E6420323A2000D5
:10267000526573756C743A2025640A004553433AD9
:102680002052657475726E2070726576696F75730D
:10269000206D656E750A000008490020087088707A
:1026A0004870C87088710871054B014603F10A0231
:1026B00058545054491C0A29FADB70470000002086
:1026C0008400002010B5FFF763FE02490020087265
:1026D00010BD00000000002038B51AA12048FFF707
:1026E0002BFA1F491F48FFF747F81F4C1D48FEF7FC
:1026F0003EFC2228FAD160780028FCD11A48093023
:1027000000788DF80000002210211848FDF7ACFF7A
:10271000012269461648FEF7BFFB0520FDF7A0FE23
:1027200014A10F48FFF708FA0D490E48FFF724F8E7
:102730000C48FEF71CFC2228FAD1207A1B28FCD179
:1027400038BD0000612E20536574204469726563B2
:1027500074696F6E2028632C2061293A0A000000FA
:1027600020000020F00000200000002000000240B7
:10277000980000204553433A2052657475726E20CC
:1027800070726576696F7573206D656E750A0000ED
:10279000F8B522A12648FFF7CFF925492548FEF7CD
:1027A000EBFF254C2348FEF7E2FB2228FAD16078A4
:1027B0000028FCD1214E002210213046FDF754FFA5
:1027C0001D4D093528788DF80000012269461C4806
:1027D000FEF762FB0520FDF743FE00221021304684
:1027E000FDF742FF68788DF8000001226946144821
:1027F000FEF752FB0520FDF733FE12A10C48FFF750
:102800009BF90B490B48FEF7B7FF0A48FEF7AFFBF1
:102810002228FAD1207A1B28FCD1F8BD612E205342
:102820006574204C45442028722C2067293A0A0000
:1028300020000020F00000200000002000000240E6
:10284000980000204553433A2052657475726E20FB
:1028500070726576696F7573206D656E750A00001C
:1028600038B533A13548FFF767F934493448FEF7E6
:1028700083FF3348FEF77BFB2228FAD131A12F4892
:10288000FFF75AF92D492E48FEF776FF2C48FEF740
:102890006EFB2228FAD132A12848FFF74DF92749CB
:1028A0002748FEF769FF2648FEF761FB2228FAD188
:1028B0007320344C8DF80000002210212046FDF7D3
:1028C000D3FE012269463048FEF7E6FA0520FDF7FF
:1028D000C7FD62208DF800002C4D14E00121204638
:1028E000FDF7B6FE78B16420FDF7BAFD0022102195
:1028F0002046FDF7B9FE012269462348FEF7CCFACF
:102900000520FDF7ADFD287A1B28E7D178208DF84A
:102910000000002210212046FDF7A6FE0122694694
:102920001948FEF7B9FA0520FDF79AFD38BD0000F9
:1029300052756E6E696E672E2E2E0A0020000020E2
:10294000F0000020507265737320627574746F6EAE
:1029500020746F207374617274204C45440A000027
:1029600050726573732045534320746F20726574F1
:1029700075726E2070726576696F7573206D656E05
:10298000750A0000000002409800002000000020AE
:1029900070B52BA12E48FFF7CFF82D492D48FEF733
:1029A000EBFE2C48FEF7E3FA2228FAD12AA12848A8
:1029B000FFF7C2F826492748FEF7DEFE294C2548D6
:1029C000FEF7D5FA2228FAD1A0780028FCD026A15B
:1029D0001F48FFF7B1F81E491E48FEF7CDFE1D48FF
:1029E000FEF7C5FA2228FAD120780028FCD1184831
:1029F0006430FDF72FFC054615486E30FDF72AFCC4
:102A00002A1A1CA11248FFF797F811491148FEF73E
:102A1000B3FE1048FEF7ABFA2228FAD118A10C48F1
:102A2000FFF78AF80A490B48FEF7A6FE0948FEF7A9
:102A30009EFA2228FAD1207A1B28FCD170BD000012
:102A4000622E2053756274726163740A0000000084
:102A500020000020F00000204F706572616E64203D
:102A6000313A2000000000204F706572616E6420D2
:102A7000323A2000526573756C743A2025640A005E
:102A80004553433A2052657475726E2070726576B4
:102A9000696F7573206D656E750A00000000000097
:102AA00000000000010203040607080900000000FE
:102AB000010203040040404040404040404041414A
:102AC0004141414040404040404040404040404003
:102AD000404040404005020202020202020202029D
:102AE000020202020220202020202020202020029A
:102AF000020202020202909090909090101010102A
:102B000010101010101010101010101010101010C5
:102B10000202020202028888888888880808080859
:102B20000808080808080808080808080808080825
:102B30000202020240000000B52A00085C2B0008D7
:102B40000000002020000000881B00087C2B0008EB
:102B50002000002010050000981B00080000000065
:102B60000000000000000000010000001000000054
:0C2B7000000000000024F4000000000041
:040000050800018965
:00000001FF
