:020000040800F2
:10000000D80400209D0100086B100008AD0F000807
:10001000691000082F0400084315000800000000C4
:100020000000000000000000000000006F10000849
:1000300031040008000000006D1000087110000875
:10004000B7010008B7010008B7010008B7010008B0
:10005000B7010008B7010008B7010008B7010008A0
:10006000B7010008B7010008B7010008B701000890
:10007000B7010008B7010008B7010008B701000880
:10008000B7010008B7010008B7010008B701000870
:10009000B7010008B7010008B7010008B701000860
:1000A000B7010008B7010008B7010008B701000850
:1000B000B7010008B7010008B7010008B701000840
:1000C000B7010008B7010008B7010008B701000830
:1000D000B7010008B7010008B7010008B701000820
:1000E000B7010008B7010008B7010008B701000810
:1000F000B7010008B7010008B7010008B701000800
:10010000B7010008B7010008B7010008B7010008EF
:100110004D110008B7010008B7010008B701000839
:10012000B7010008B7010008B7010008B7010008CF
:10013000B7010008B7010008B7010008B7010008BF
:10014000B7010008B7010008B7010008B7010008AF
:10015000B7010008B7010008B7010008B70100089F
:10016000B7010008B7010008B7010008B70100088F
:10017000B7010008B7010008B7010008000000003F
:10018000B7010008B7010008DFF80CD000F0DCF878
:1001900000480047CD180008D804002006488047D2
:1001A00006480047FEE7FEE7FEE7FEE7FEE7FEE75C
:1001B000FEE7FEE7FEE7FEE7F91000088901000808
:1001C0002DE9F05F0546002092469B46884606468C
:1001D000814640241BE0284641464746224600F01F
:1001E0006BF853465A46C01A914110D3114618462F
:1001F000224600F052F82D1A67EB01084F462246BE
:100200000120002100F049F817EB00094E41201EA3
:10021000A4F10104DFDC484631462A464346BDE8E6
:10022000F09FD2B201E000F8012B491EFBD27047CB
:100230000022F6E710B513460A4604461946FFF7B2
:10024000F0FF204610BD421C10F8011B0029FBD115
:10025000801A704770B5064601F098F904680546A3
:100260000A220021304600F037F82C6070BD30B50E
:100270000B46014600202022012409E021FA02F564
:100280009D4205D303FA02F5491B04FA02F52844FE
:10029000151EA2F10102F1DC30BD202A04DB203A58
:1002A00000FA02F1002070479140C2F1200320FAC9
:1002B00003F3194390407047202A04DB203A21FAC7
:1002C00002F00021704721FA02F3D040C2F120026F
:1002D00091400843194670472DE9F04791460F4673
:1002E00080460446002614F8015B2DB100F03EF86C
:1002F0000068405DC007F6D12B2D02D02D2D18D0FF
:10030000641E4A463946204600F034F827B1396861
:10031000A14201D1C7F8008071054FF002040BD54E
:100320004042002803DD01F031F90460A007BDE878
:10033000F08746F48066E4E70028F8DA01F026F951
:1003400004606FF00040F2E7064C074D06E0E068FD
:1003500040F0010394E8070098471034AC42F6D30C
:10036000FFF716FF641D0008841D00080048704751
:10037000601D00082DE9F05F8246007800271546D1
:100380008B460AF10104B946302801D09DB113E033
:1003900014F8010B0127782803D0582801D045B163
:1003A0000AE00DB1102D07D10027102514F8010B1C
:1003B00002E0082500E00A250026B0460EE005FB15
:1003C000080005FB06F1012701EB10461FFA80F833
:1003D000B6F5803F00D3B94614F8010B294600F06A
:1003E00018F80028EBDABBF1000F05D00FB1641E3E
:1003F00000E05446CBF80040B9F1000F06D001F000
:10040000C5F802210160C81EBDE8F09F48EA064019
:10041000FAE73A2800D2303820F02002412A01D3EE
:10042000A2F13700884201D34FF0FF307047FEE75A
:100430007047704790F83510022903D0802141653C
:1004400001207047052180F835100068016821F00F
:10045000010101600020704770B5044600F0F2F819
:100460000546601C02D004480078044400F0EAF815
:10047000401BA042FAD370BD080000202DE9F84FC0
:10048000DFF87CB100224FF001084FF0030A4FF073
:100490000F090BF1040E00BF0B6808FA02F42340A9
:1004A000A3426ED14D68022D01D0122D0ED1D50878
:1004B00000EB850CDCF820505607F70E09FA07F61A
:1004C000B5430E69BE402E43CCF820600668550047
:1004D0000F790AFA05FC07F0030726EA0C06AF407D
:1004E000374307604E68012E05D0022E03D0112E2F
:1004F00001D0122E0ED18668CF6826EA0C06AF40D6
:10050000374387604668A6430C79C4F300149440CF
:1005100034434460C6688C6826EA0C06AC40344319
:10052000C4604C68E40065D5364C256845F48045C8
:100530002560246822F0030504F480440094324CC2
:100540002E19D6F8084895072F0F09FA07F5AC437E
:100550002E4DA84201D1002524E02D4DA84201D105
:1005600001251FE02B4DA84201D102251AE02A4D9A
:10057000A84201D1032515E0284DA84202D1042547
:1005800010E037E0264DA84201D105250AE0254DAF
:10059000A84201D1062505E0234DA84201D1072537
:1005A00000E00825BD402543C6F80858DBF80040A8
:1005B0005D464E689C43F60300D51C432C60DEF874
:1005C000004075464E689C43B60300D51C432C6022
:1005D0000B4D08352C684E689C43F60200D51C4331
:1005E0002C60074D0C352C684E689C43B60200D534
:1005F0001C432C60521C102AFFF44EAFBDE8F88F4C
:10060000003C0140443802400030014000000240FC
:100610000004024000080240000C024000100240AA
:100620000014024000180240001C0240426931EAF6
:10063000020200D10904816170470AB181617047EB
:100640000904FBE7014880687047000008000020AB
:1006500002488168027811448160704708000020D8
:100660000B4810B5016841F400710160016841F464
:1006700080610160016841F480710160032000F035
:100680006FF8002000F006F800F024F8002010BDFC
:10069000003C024070B50D4D04464FF47A71287845
:1006A000B1FBF0F00A490968B1FBF0F000F0E0FAA4
:1006B00048B9102C07D200222146501E00F030F815
:1006C00000206C6070BD012070BD0000080000209B
:1006D000140000200A4808B5016841F48041016017
:1006E000006800F4804000900548001F016841F058
:1006F00080510160006800F08050009008BD00004B
:1007000044380240002809DB00F01F02012191401B
:100710004009800000F1E020C0F80011704700009F
:10072000F0B40E4B1B680C46C3F30223C3F107055C
:10073000042D00D90425191D072901D2002300E04A
:10074000DB1E012606FA05F1491E214099409E4014
:10075000761E16403143F0BC00F008BF0CED00E0FF
:10076000064900F0070208684FF6FF03184040EA08
:100770000220034A10430860704700000CED00E0BF
:100780000000FA052DE9F0470E46050065D0DFF8B8
:100790001481D8F80000F7B200F00F00B04207D281
:1007A00088F80070D8F8000000F00F00B04254D173
:1007B00028683D4C810712D5400703D5206840F4D6
:1007C000E05020602878000703D5206840F460409E
:1007D00020602068A96820F0F00008432060287895
:1007E000C0072DD0304968680839012812D0022886
:1007F00013D0032811D00968890700292DDA216850
:1008000021F0030101432160FFF71CFF814641F203
:10081000883A0EE009688903EFE709688901ECE787
:10082000FFF710FFA0EB0901514502D90320BDE8F5
:10083000F0872068696800F00C00B0EB810FEFD101
:10084000D8F80010404601F00F01B14207D90770F7
:10085000006800F00F00B04201D00120E7E72878DF
:10086000400705D52068E96820F4E050084320607F
:100870002878000706D52068296920F4604040EAFE
:10088000C100206000F036F82168084AC1F3031166
:10089000515CC840064908600020FFF7FBFE0020BD
:1008A000C5E70000003C024008380240C41C0008B4
:1008B000140000200448054900680968044AC1F38F
:1008C0008221515CC8407047140000200838024063
:1008D000D41C00080448054900680968044AC1F3AB
:1008E0004231515CC8407047140000200838024073
:1008F000D41C0008154810B5006810F00C0214480C
:1009000013D04110042A0FD0082A0ED10F4C241FF7
:100910002268236802F03F025B0207D52068C0F31B
:100920008810A0FB010106E0084610BD2168C1F354
:100930008811A1FB00010023FFF742FC2168C1F3ED
:100940000141491C4900B0FBF1F010BD08380240DC
:100950000024F4002DE9F84F050076D02878DFF860
:10096000F8B2BE4CC00749D0DBF800105846C1F3BE
:100970008101012908D00068C0F3810002280AD152
:10098000201D0068400206D52068800336D56868BF
:100990000028E2D032E06868B0F5803F10D0B0F5B2
:1009A000A02F206810D020F480302060206820F430
:1009B000802020606868A0B1FFF744FE06460CE086
:1009C000206840F48030F4E740F480202060F7E7AE
:1009D000FFF738FE801B642873D820688003F7D5A2
:1009E0000CE0FFF72FFE064605E000BFFFF72AFEEA
:1009F000801B6428F0D820688003F7D42878DFF8BB
:100A0000608280074FF000093ED5DBF800105846A1
:100A100011F00C0F09D00068C0F3810002280BD13F
:100A20008D48001F0068400206D42068800715D555
:100A3000E868012809D111E0E868B8B10120C8F8D8
:100A40000000FFF7FFFD064605E002E1FFF7FAFDB3
:100A5000801B0228C0D820688007F7D52068296944
:100A600020F0F80040EAC10020600DE0C8F80090D6
:100A7000FFF7E8FD064604E0FFF7E4FD801B0228CF
:100A80001FD820688007F7D42878000722D5724E37
:100A9000744869696C3671B101210160FFF7D2FDBC
:100AA000074604E0FFF7CEFDC01B022809D83068D6
:100AB0008007F7D50EE0C0F80090FFF7C3FD0746AA
:100AC00005E083E0FFF7BEFDC01B02287ED830683A
:100AD0008007F7D42878400768D5DFF87CA1002785
:100AE0000AF1380ADAF80000C0000BD4DAF8001076
:100AF00041F08051CAF80010DAF80000012700F038
:100B000080500090584E3068C00510D4306840F4D2
:100B100080703060FFF796FD009005E0FFF792FDD2
:100B20000099401A022851D83068C005F6D54A4EBF
:100B3000A868683601280FD00528306810D020F04A
:100B400001003060306820F004003060A868B8B15F
:100B5000FFF778FD00900FE0306840F00100F4E707
:100B600040F004003060F7E7FFF76CFD0099411A90
:100B700041F28830814264D830688007F4D50EE0B5
:100B8000FFF760FD009007E0FFF75CFD0099411A58
:100B900041F28830814254D830688007F4D42FB1B4
:100BA000DAF8001021F08051CAF80010A869C0B32B
:100BB000DBF80010C1F3810102294AD0022848461F
:100BC00007D0C8F86000FFF73DFD00E039E00546BA
:100BD0003AE04746C8F86000FFF734FD064604E0F7
:100BE000FFF730FD801B02282BD820688001F7D446
:100BF000D5E907010843A96A1C4A490802EB0141EB
:100C00006A6A41EA8211084395F82C1040EA0161B2
:100C10001148001F016001203866FFF713FD0546EB
:100C200005E014E0FFF70EFD401B022809D82068FC
:100C30008001F7D50BE000BFFFF704FD401B022841
:100C400002D90320BDE8F88F20688001F4D4002089
:100C5000F8E70120F6E700000838024000380240BB
:100C600000004742800E4742007000400000FFFF36
:100C700010B5401EB0F1807F01D3012010BD4FF0B0
:100C8000E02460610F21601700F070FC0020A0617B
:100C900007202061002010BD704710F8391F4078F0
:100CA0000843704770B5026804461068D1685369FC
:100CB00010F00F0F50D003F0010501F4907635438A
:100CC0005DD0C20705D0CA0503D5E26B42F0010230
:100CD000E263420705D5DA0703D0E26B42F0020275
:100CE000E263820705D5DA0703D0E26B42F0040223
:100CF000E263020705D5DA0703D0E26B42F008028F
:100D0000E263E26B002A33D0800604D5880602D560
:100D1000204600F044FA20684069E16BC0F380107F
:100D2000090700D428B3204600F01EFA2068416964
:100D300049061AD5416921F040014161606BA0B1BB
:100D40001B490165606BFFF775FB002810D0606BD5
:100D5000016DBDE870400847830610D58B060ED59F
:100D60002046BDE8704000F01ABA2046FFF794FF15
:100D700070BD2046FFF790FF0020E06370BD0306C2
:100D800006D50B0604D52046BDE8704000F0A8BB90
:100D90004006F3D54806F1D5D168204621F0400140
:100DA000D160202184F8391000F0FFF870BD0000F8
:100DB0005911000870B5040004D094F839000025DA
:100DC00010B106E0012070BD84F83850204600F0D4
:100DD00023F8242084F839002068C16821F40051E8
:100DE000C160204600F026FA2068016921F4904194
:100DF00001612068416921F02A0141612068C168D0
:100E000041F40051C160E563202084F8390084F882
:100E10003A00002070BD000010B586B004461421D1
:100E20006846FFF705FA18492068884229D1174813
:100E3000016841F400210160006800F40020059081
:100E400012481038016841F00401016000686946E9
:100E500000F0040005904FF44060009002200190E3
:100E60000120029003200390082004900848FFF717
:100E700005FB002211463420FFF752FC3420FFF717
:100E800041FC06B010BD0000004C0040403802405C
:100E90000008024090F83A30202B22D1F9B1F2B18B
:100EA00090F83830012B1CD081628285C2850021E8
:100EB000C163222280F83A2080F838100168CA689D
:100EC00042F48072CA6001684A6942F001024A61D4
:100ED0000068C16841F02001C16000207047012016
:100EE00070470220704700001D4900680968884269
:100EF00035D11C4801790122612900D102700178A5
:100F000039B3437800217BB1427812B30279302A99
:100F10001AD30279392A17D80279C178124B0B44B7
:100F2000491CC1701A7014E00379302B07D3037980
:100F3000392B04D80279C1780B4B0A3BEFE70379D0
:100F40000A2B06D1427003E002790A2A01D101700E
:100F5000C17004490122091D0148FFF79BBF70477A
:100F600094000020000000208A00002090F8393012
:100F7000202B18D1A9B1A2B190F83830012B12D092
:100F800001628284C2840021C163212280F8392059
:100F900080F838100068C16841F08001C16000200D
:100FA000704701207047022070477047FEE700003D
:100FB00070B586B014216846FFF73AF91A48002444
:100FC000016841F080010160016801F08001059134
:100FD000016841F008010160016801F00801059114
:100FE000016841F001010160016801F00101059112
:100FF000016841F00401016000680C4E00F004003B
:101000004FF470450590002229463046FFF715FB46
:1010100001200095CDE90104694630460394FFF7AD
:101020002DFA06B070BD000030380240000C0240BE
:101030000C4810B50A4901604FF4E13141600021CC
:1010400081600C22C160C0E904128161C161FFF7B7
:10105000B1FE002803D0BDE81040FFF7EAB910BD8B
:10106000004C004094000020FEE770477047704736
:10107000FFF7EEBA30B593B030216846FFF7D8F8E5
:1010800014210CA8FFF7D4F819480025016841F095
:1010900080510160006800F080501190154801688F
:1010A00041F4804101600068022400F48040119006
:1010B00001200090000401908001CDE90640082045
:1010C00008904FF4A870CDE9090404200B906846FD
:1010D000FFF740FC0CA90F2081E831004FF4A0502D
:1010E0000F90109005210CA8FFF74CFB13B030BDFA
:1010F00040380240007000401048016841F470011F
:1011000001600F48016841F0010101600C4A0021B3
:101110000832116002680B4B1A400260031D0A4A34
:101120001A60026822F48022026005480C300160D7
:1011300002495806803908607047000088ED00E0D9
:1011400000380240FFFFF6FE103000240148FFF790
:10115000A9BD00009400002010B5806B0021C1855E
:10116000C184FFF799FD10BD0168CA6822F490722E
:10117000CA6001684A6922F001024A61202180F8B0
:101180003A10704770B505460C460846FFF75BF805
:1011900082B221462846BDE87040FFF7E7BE10B591
:1011A00090F83A10222901D0022010BD8168B1F5D3
:1011B000805F11D00169002901681FD0496801F0E2
:1011C0007F03816A4A1C82620B70C18D491E09042B
:1011D000090CC18518D02BE00269816A002A0268D7
:1011E000526805D0D2B20A80816A491C8162ECE75C
:1011F000C2F308020A80816A891CF7E74A68816A9B
:101200004B1C83620A70E0E70168CA6822F0200282
:10121000CA600168CA6822F48072CA6001684A69BB
:1012200022F001024A61202180F83A10FFF75CFEAB
:10123000002010BD2DE9F041044600680169E26814
:1012400021F44051114301612169A068E26908431A
:101250006169114322680843D16849F20C639943DC
:101260000143D16020684169A26921F440711143B2
:101270004161E2696425B2F5004F974897492268B9
:101280004FF032083FD08A4201D082427CD1FFF732
:1012900021FB00EBC00101EB001061688900B0FB8D
:1012A000F1F6FFF717FB00EBC00101EB00106168DE
:1012B0008900B0FBF1F0B0FBF5F06FF01801484386
:1012C00006EB800108EB0110B0FBF5F000F0F00632
:1012D000FFF700FB00EBC00101EB00106168890023
:1012E000B0FBF1F0B0FBF5F006EB0016FFF7F2FAF9
:1012F00000EBC00101EB001061688900B0FBF1F761
:10130000FFF7E8FAD2E08A4201D082423DD1FFF7EE
:10131000E1FA00EBC00101EB001061684900B0FB8D
:10132000F1F0B0FBF5F00601FFF7D4FA00EBC001D5
:1013300001EB001061684900B0FBF1F7FFF7CAFA52
:1013400000EBC00101EB001061684900B0FBF1F057
:10135000B0FBF5F06FF01801484307EB800108EB94
:10136000C100B0FBF5F000F0F80006EB4006FFF717
:10137000B1FA00EBC00101EB001061684900B0FB5D
:10138000F1F7FFF7A7FA3CE055E0FFF793FA00EB1F
:10139000C00101EB001061684900B0FBF1F0B0FB47
:1013A000F5F00601FFF786FA00EBC00101EB001033
:1013B00061684900B0FBF1F7FFF77CFA00EBC00170
:1013C00001EB001061684900B0FBF1F0B0FBF5F0F3
:1013D0006FF01801484307EB800108EBC100B0FB38
:1013E000F5F000F0F80006EB4006FFF763FA00EBBB
:1013F000C00101EB001061684900B0FBF1F7FFF795
:1014000059FA00EBC00101EB001061684900B0FB24
:10141000F1F0B0FBF5F06FF01801484307EB8001E5
:1014200008EBC100B0FBF5F000F007002168304484
:101430008860BDE8F081FFF73DFA00EBC00101EBE9
:10144000001061688900B0FBF1F6FFF733FA00EB9A
:10145000C00101EB001061688900B0FBF1F0B0FB46
:10146000F5F06FF01801484306EB800108EB01101E
:10147000B0FBF5F000F0F006FFF71CFA00EBC0013E
:1014800001EB001061688900B0FBF1F0B0FBF5F0F2
:1014900006EB0016FFF70EFA00EBC00101EB00109F
:1014A00061688900B0FBF1F7FFF704FA00EBC001B7
:1014B00001EB001061688900B0FBF1F0B0FBF5F0C2
:1014C0006FF01801484307EB800108EB0110B0FBF7
:1014D000F5F000F00F00A9E70014014000100140F2
:1014E00090F83910212901D0022070478168B1F5A8
:1014F000805F016A0BD04A1C026202680978516061
:10150000C18C491E0904090CC1840ED017E009885A
:101510000268C1F30801516001690029016A02D023
:10152000491C0162ECE7891CFBE70168CA6822F0EC
:101530008002CA600068C16841F04001C1600020BB
:101540007047FEE70FB4084B10B504A902AA039830
:1015500000F030F8044602A9002000F0D5F820463B
:1015600010BC5DF814FB0000091700080907090EFC
:10157000002804DB00F1E02080F80014704700F040
:101580000F0000F1E02080F8141D704700487047FC
:101590001800002002E008C8121F08C1002AFAD172
:1015A00070477047002001E001C1121F002AFBD1E3
:1015B000704700002DE9FF4F89B09B460446002587
:1015C00006E025280BD05A460B999047641C6D1CE9
:1015D00020780028F5D10DB02846BDE8F08F00270F
:1015E000B8460122474900E0074314F8013F203B79
:1015F00002FA03F00842F7D120782E2819D114F806
:10160000010F47F004072A280ED06FF02F02207830
:10161000A0F1300109290CD808EB880102EB410147
:1016200000EB0108641CF2E70A98641C50F8048B74
:101630000A9020780028CED0642808D0692806D0E7
:1016400075281ED05A460B9990476D1C58E00A9990
:101650004FF00A0901C90A91002802DA40422D21FF
:1016600002E0390504D52B218DF82010012103E07B
:10167000F90704D02021F7E78A4608AE0DE00021E3
:10168000FAE70A994FF00A0901C90A91F7E74946B2
:10169000FEF7EDFD303106F8011D0028F7D1ADEB66
:1016A000060000F12009780701D44FF00108C84571
:1016B00002DDA8EB090000E000208046002706E0DC
:1016C00008A85A46C05D0B9990476D1C7F1C574572
:1016D000F6DB04E030205A460B9990476D1CB8F1B8
:1016E0000001A8F10108F5DC05E016F8010B5A46E7
:1016F0000B9990476D1CB9F10001A9F10109F4DCC7
:10170000641C65E7092801000A68531C0B6010700F
:101710007047000010B51CA12248FFF713FF2149B4
:101720002148FFF72FFD2048FFF7B7FA2228FAD10A
:101730001EA11C48FFF706FF1A491B48FFF722FDB0
:101740001948FFF7AAFA2228FAD11CA11548FFF779
:10175000F9FE14491448FFF715FD1348FFF79DFAE9
:101760002228FAD11CA10F48FFF7ECFE0D490E48C4
:10177000FFF708FD0C48FFF790FA2228FAD11D4820
:1017800001791B29FCD110BD312E2053747564657D
:101790006E7420496E666F726D6174696F6E730A44
:1017A000000000001C0000209400002049443A2062
:1017B00031363532303934360A00000046756C6CEB
:1017C000204E616D653A204C6520486F616E672040
:1017D000506875630A0000004553433A205265740F
:1017E00075726E2070726576696F7573206D656EA7
:1017F000750A00000000002010B500F029F90A4821
:1018000001790229FCD000791B2807D0612809D171
:1018100000F0BEF9BDE8104000F03EBABDE810404F
:1018200000F016B910BD0000000000202DE9F047BF
:101830001BA12248FFF786FE20492148FFF7A2FCA2
:101840001F48FFF72AFA2228FAD14FF480561D4C80
:101850001D4D77004FF480484FF4004928791B282C
:101860001CD031462046FEF7E1FEC820FEF7F4FD0D
:1018700039462046FEF7DAFEC820FEF7EDFD414668
:101880002046FEF7D3FEC820FEF7E6FD4946204677
:10189000FEF7CCFEC820FEF7DFFDDFE7BDE8F087EE
:1018A0004553433A2052657475726E2070726576A6
:1018B000696F7573206D656E750A00001C0000204D
:1018C00094000020000C024000000020FEF7C8FE3B
:1018D000FFF7D0FBFFF76CFBFFF7AAFB01220E49D5
:1018E0000E48FFF7D7FA00F01BF80B4C241F2079A5
:1018F0001B280ED0312806D0322807D03328F6D145
:10190000FFF794FFF3E7FFF705FFF0E7FFF774FF3A
:10191000EDE700F005F8EAE704000020940000205D
:1019200010B529A13048FFF70DFE2F492F48FFF7CA
:1019300029FC2E48FFF7B1F92228FAD12CA12A4818
:10194000FFF700FE28492948FFF71CFC2748FFF74E
:10195000A4F92228FAD12DA12348FFF7F3FD22494B
:101960002248FFF70FFC2148FFF797F92228FAD108
:101970002BA11D48FFF7E6FD1B491C48FFF702FCA1
:101980001A48FFF78AF92228FAD129A11648FFF749
:10199000D9FD15491548FFF7F5FB1448FFF77DF908
:1019A0002228FAD126A11048FFF7CCFD0E490F4896
:1019B000FFF7E8FB0D48FFF770F92228FAD1234919
:1019C0000020087110BD000043686F6F73652079B7
:1019D0006F7572206F7074696F6E28312C322C33E2
:1019E0002C202E2E2E290A001C00002094000020FE
:1019F000312E2053747564656E7420496E666F7263
:101A00006D6174696F6E730A00000000322E20420F
:101A100061736963204F7065726174696F6E0A004B
:101A2000332E2053696D706C65204C65640A00008C
:101A3000342E20416476616E6365204C65640A0033
:101A4000352E20417564696F0A00000000000020F7
:101A500010B52FA13348FFF775FD32493248FFF723
:101A600091FB3148FFF719F92228FAD12FA12D480F
:101A7000FFF768FD2B492C48FFF784FB2A48FFF746
:101A80000CF92228FAD12CA12648FFF75BFD254945
:101A90002548FFF777FB2448FFF7FFF82228FAD103
:101AA00029A12048FFF74EFD1E491F48FFF76AFB9A
:101AB0001D48FFF7F2F82228FAD127A11948FFF7AD
:101AC00041FD18491848FFF75DFB1748FFF7E5F897
:101AD0002228FAD123A11348FFF734FD11491248F7
:101AE000FFF750FB1048FFF7D8F82228FAD120A1C1
:101AF0000C48FFF727FD0B490B48FFF743FB0A484B
:101B0000FFF7CBF82228FAD120490220087110BD36
:101B1000322E204261736963204F7065726174696F
:101B20006F6E0A001C00002094000020612E2050DF
:101B30006C75730A00000000622E20537562747287
:101B40006163740A00000000632E204D756C746997
:101B5000706C650A00000000642E20446976696498
:101B6000650A0000652E204D6F64756C650A0000E3
:101B70004553433A2052657475726E2070726576D3
:101B8000696F7573206D656E750A00000000002096
:101B900070B52BA12D48FFF7D5FC2C492C48FFF739
:101BA000F1FA2B48FFF779F82228FAD129A1274822
:101BB000FFF7C8FC25492648FFF7E4FA284C2448DB
:101BC000FFF76BF82228FAD160780028FCD025A115
:101BD0001E48FFF7B7FC1D491D48FFF7D3FA1C4804
:101BE000FFF75BF82228FAD120780028FCD11748AB
:101BF0006430FEF72FFB054614486E30FEF72AFBD3
:101C00002A181BA11148FFF79DFC10491048FFF747
:101C1000B9FA0F48FFF741F82228FAD117A10B486B
:101C2000FFF790FC09490A48FFF7ACFA0848FFF7AC
:101C300034F82228FAD120791B28FCD170BD00008D
:101C4000612E20506C75730A000000001C000020FB
:101C5000940000204F706572616E6420313A20005C
:101C6000000000204F706572616E6420323A2000DF
:101C7000526573756C743A2025640A004553433AE3
:101C80002052657475726E2070726576696F757317
:101C9000206D656E750A0000084801210170002161
:101CA00041708170C170064B084603F10A02195455
:101CB0001154401C0A28FADB704700000000002085
:101CC000800000200000000000000000010203046A
:101CD000060708090000000001020304004040401C
:101CE00040404040404041414141414040404040EF
:101CF000404040404040404040404040400502029B
:101D00000202020202020202020202020220202059
:101D100020202020202020020202020202029090B5
:101D200090909090101010101010101010101010B3
:101D30001010101010101010020202020202888807
:101D40008888888808080808080808080808080813
:101D500008080808080808080202020240000000FB
:101D6000DD1C0008841D0008000000201C0000008D
:101D700094150008A01D00081C000020BC040000F1
:101D8000A415000800000000000000000100000091
:101D900010000000000000000024F400000000001B
:040000050800018965
:00000001FF
