:020000040800F2
:10000000D80400209D01000883100008C50F0008D7
:10001000811000082F0400085B1500080000000094
:100020000000000000000000000000008710000831
:100030003104000800000000851000088910000845
:10004000B7010008B7010008B7010008B7010008B0
:10005000B7010008B7010008B7010008B7010008A0
:10006000B7010008B7010008B7010008B701000890
:10007000B7010008B7010008B7010008B701000880
:10008000B7010008B7010008B7010008B701000870
:10009000B7010008B7010008B7010008B701000860
:1000A000B7010008B7010008B7010008B701000850
:1000B000B7010008B7010008B7010008B701000840
:1000C000B7010008B7010008B7010008B701000830
:1000D000B7010008B7010008B7010008B701000820
:1000E000B7010008B7010008B7010008B701000810
:1000F000B7010008B7010008B7010008B701000800
:10010000B7010008B7010008B7010008B7010008EF
:1001100065110008B7010008B7010008B701000821
:10012000B7010008B7010008B7010008B7010008CF
:10013000B7010008B7010008B7010008B7010008BF
:10014000B7010008B7010008B7010008B7010008AF
:10015000B7010008B7010008B7010008B70100089F
:10016000B7010008B7010008B7010008B70100088F
:10017000B7010008B7010008B7010008000000003F
:10018000B7010008B7010008DFF80CD000F0DCF878
:10019000004800471D1A0008D80400200648804780
:1001A00006480047FEE7FEE7FEE7FEE7FEE7FEE75C
:1001B000FEE7FEE7FEE7FEE71111000889010008EF
:1001C0002DE9F05F0546002092469B46884606468C
:1001D000814640241BE0284641464746224600F01F
:1001E0006BF853465A46C01A914110D3114618462F
:1001F000224600F052F82D1A67EB01084F462246BE
:100200000120002100F049F817EB00094E41201EA3
:10021000A4F10104DFDC484631462A464346BDE8E6
:10022000F09FD2B201E000F8012B491EFBD27047CB
:100230000022F6E710B513460A4604461946FFF7B2
:10024000F0FF204610BD421C10F8011B0029FBD115
:10025000801A704770B5064601F0A4F90468054697
:100260000A220021304600F037F82C6070BD30B50E
:100270000B46014600202022012409E021FA02F564
:100280009D4205D303FA02F5491B04FA02F52844FE
:10029000151EA2F10102F1DC30BD202A04DB203A58
:1002A00000FA02F1002070479140C2F1200320FAC9
:1002B00003F3194390407047202A04DB203A21FAC7
:1002C00002F00021704721FA02F3D040C2F120026F
:1002D00091400843194670472DE9F04791460F4673
:1002E00080460446002614F8015B2DB100F03EF86C
:1002F0000068405DC007F6D12B2D02D02D2D18D0FF
:10030000641E4A463946204600F034F827B1396861
:10031000A14201D1C7F8008071054FF002040BD54E
:100320004042002803DD01F03DF90460A007BDE86C
:10033000F08746F48066E4E70028F8DA01F032F945
:1003400004606FF00040F2E7064C074D06E0E068FD
:1003500040F0010394E8070098471034AC42F6D30C
:10036000FFF716FFD0200008F02000080048704773
:10037000CC2000082DE9F05F824600780027154662
:100380008B460AF10104B946302801D09DB113E033
:1003900014F8010B0127782803D0582801D045B163
:1003A0000AE00DB1102D07D10027102514F8010B1C
:1003B00002E0082500E00A250026B0460EE005FB15
:1003C000080005FB06F1012701EB10461FFA80F833
:1003D000B6F5803F00D3B94614F8010B294600F06A
:1003E00018F80028EBDABBF1000F05D00FB1641E3E
:1003F00000E05446CBF80040B9F1000F06D001F000
:10040000D1F802210160C81EBDE8F09F48EA06400D
:10041000FAE73A2800D2303820F02002412A01D3EE
:10042000A2F13700884201D34FF0FF307047FEE75A
:100430007047704790F83510022903D0802141653C
:1004400001207047052180F835100068016821F00F
:10045000010101600020704770B5044600F0F2F819
:100460000546601C02D004480078044400F0EAF815
:10047000401BA042FAD370BD080000202DE9F84FC0
:10048000DFF87CB100224FF001084FF0030A4FF073
:100490000F090BF1040E00BF0B6808FA02F42340A9
:1004A000A3426ED14D68022D01D0122D0ED1D50878
:1004B00000EB850CDCF820505607F70E09FA07F61A
:1004C000B5430E69BE402E43CCF820600668550047
:1004D0000F790AFA05FC07F0030726EA0C06AF407D
:1004E000374307604E68012E05D0022E03D0112E2F
:1004F00001D0122E0ED18668CF6826EA0C06AF40D6
:10050000374387604668A6430C79C4F300149440CF
:1005100034434460C6688C6826EA0C06AC40344319
:10052000C4604C68E40065D5364C256845F48045C8
:100530002560246822F0030504F480440094324CC2
:100540002E19D6F8084895072F0F09FA07F5AC437E
:100550002E4DA84201D1002524E02D4DA84201D105
:1005600001251FE02B4DA84201D102251AE02A4D9A
:10057000A84201D1032515E0284DA84202D1042547
:1005800010E037E0264DA84201D105250AE0254DAF
:10059000A84201D1062505E0234DA84201D1072537
:1005A00000E00825BD402543C6F80858DBF80040A8
:1005B0005D464E689C43F60300D51C432C60DEF874
:1005C000004075464E689C43B60300D51C432C6022
:1005D0000B4D08352C684E689C43F60200D51C4331
:1005E0002C60074D0C352C684E689C43B60200D534
:1005F0001C432C60521C102AFFF44EAFBDE8F88F4C
:10060000003C0140443802400030014000000240FC
:100610000004024000080240000C024000100240AA
:100620000014024000180240001C0240426931EAF6
:10063000020200D10904816170470AB181617047EB
:100640000904FBE7014880687047000008000020AB
:1006500002488168027811448160704708000020D8
:100660000B4810B5016841F400710160016841F464
:1006700080610160016841F480710160032000F035
:100680006FF8002000F006F800F024F8002010BDFC
:10069000003C024070B50D4D04464FF47A71287845
:1006A000B1FBF0F00A490968B1FBF0F000F0E0FAA4
:1006B00048B9102C07D200222146501E00F030F815
:1006C00000206C6070BD012070BD0000080000209B
:1006D000140000200A4808B5016841F48041016017
:1006E000006800F4804000900548001F016841F058
:1006F00080510160006800F08050009008BD00004B
:1007000044380240002809DB00F01F02012191401B
:100710004009800000F1E020C0F80011704700009F
:10072000F0B40E4B1B680C46C3F30223C3F107055C
:10073000042D00D90425191D072901D2002300E04A
:10074000DB1E012606FA05F1491E214099409E4014
:10075000761E16403143F0BC00F014BF0CED00E0F3
:10076000064900F0070208684FF6FF03184040EA08
:100770000220034A10430860704700000CED00E0BF
:100780000000FA052DE9F0470E46050065D0DFF8B8
:100790001481D8F80000F7B200F00F00B04207D281
:1007A00088F80070D8F8000000F00F00B04254D173
:1007B00028683D4C810712D5400703D5206840F4D6
:1007C000E05020602878000703D5206840F460409E
:1007D00020602068A96820F0F00008432060287895
:1007E000C0072DD0304968680839012812D0022886
:1007F00013D0032811D00968890700292DDA216850
:1008000021F0030101432160FFF71CFF814641F203
:10081000883A0EE009688903EFE709688901ECE787
:10082000FFF710FFA0EB0901514502D90320BDE8F5
:10083000F0872068696800F00C00B0EB810FEFD101
:10084000D8F80010404601F00F01B14207D90770F7
:10085000006800F00F00B04201D00120E7E72878DF
:10086000400705D52068E96820F4E050084320607F
:100870002878000706D52068296920F4604040EAFE
:10088000C100206000F036F82168084AC1F3031166
:10089000515CC840064908600020FFF7FBFE0020BD
:1008A000C5E70000003C0240083802403020000844
:1008B000140000200448054900680968044AC1F38F
:1008C0008221515CC8407047140000200838024063
:1008D000402000080448054900680968044AC1F33B
:1008E0004231515CC8407047140000200838024073
:1008F00040200008154810B5006810F00C0214489C
:1009000013D04110042A0FD0082A0ED10F4C241FF7
:100910002268236802F03F025B0207D52068C0F31B
:100920008810A0FB010106E0084610BD2168C1F354
:100930008811A1FB00010023FFF742FC2168C1F3ED
:100940000141491C4900B0FBF1F010BD08380240DC
:100950000024F4002DE9F84F050076D02878DFF860
:10096000F8B2BE4CC00749D0DBF800105846C1F3BE
:100970008101012908D00068C0F3810002280AD152
:10098000201D0068400206D52068800336D56868BF
:100990000028E2D032E06868B0F5803F10D0B0F5B2
:1009A000A02F206810D020F480302060206820F430
:1009B000802020606868A0B1FFF744FE06460CE086
:1009C000206840F48030F4E740F480202060F7E7AE
:1009D000FFF738FE801B642873D820688003F7D5A2
:1009E0000CE0FFF72FFE064605E000BFFFF72AFEEA
:1009F000801B6428F0D820688003F7D42878DFF8BB
:100A0000608280074FF000093ED5DBF800105846A1
:100A100011F00C0F09D00068C0F3810002280BD13F
:100A20008D48001F0068400206D42068800715D555
:100A3000E868012809D111E0E868B8B10120C8F8D8
:100A40000000FFF7FFFD064605E002E1FFF7FAFDB3
:100A5000801B0228C0D820688007F7D52068296944
:100A600020F0F80040EAC10020600DE0C8F80090D6
:100A7000FFF7E8FD064604E0FFF7E4FD801B0228CF
:100A80001FD820688007F7D42878000722D5724E37
:100A9000744869696C3671B101210160FFF7D2FDBC
:100AA000074604E0FFF7CEFDC01B022809D83068D6
:100AB0008007F7D50EE0C0F80090FFF7C3FD0746AA
:100AC00005E083E0FFF7BEFDC01B02287ED830683A
:100AD0008007F7D42878400768D5DFF87CA1002785
:100AE0000AF1380ADAF80000C0000BD4DAF8001076
:100AF00041F08051CAF80010DAF80000012700F038
:100B000080500090584E3068C00510D4306840F4D2
:100B100080703060FFF796FD009005E0FFF792FDD2
:100B20000099401A022851D83068C005F6D54A4EBF
:100B3000A868683601280FD00528306810D020F04A
:100B400001003060306820F004003060A868B8B15F
:100B5000FFF778FD00900FE0306840F00100F4E707
:100B600040F004003060F7E7FFF76CFD0099411A90
:100B700041F28830814264D830688007F4D50EE0B5
:100B8000FFF760FD009007E0FFF75CFD0099411A58
:100B900041F28830814254D830688007F4D42FB1B4
:100BA000DAF8001021F08051CAF80010A869C0B32B
:100BB000DBF80010C1F3810102294AD0022848461F
:100BC00007D0C8F86000FFF73DFD00E039E00546BA
:100BD0003AE04746C8F86000FFF734FD064604E0F7
:100BE000FFF730FD801B02282BD820688001F7D446
:100BF000D5E907010843A96A1C4A490802EB0141EB
:100C00006A6A41EA8211084395F82C1040EA0161B2
:100C10001148001F016001203866FFF713FD0546EB
:100C200005E014E0FFF70EFD401B022809D82068FC
:100C30008001F7D50BE000BFFFF704FD401B022841
:100C400002D90320BDE8F88F20688001F4D4002089
:100C5000F8E70120F6E700000838024000380240BB
:100C600000004742800E4742007000400000FFFF36
:100C700010B5401EB0F1807F01D3012010BD4FF0B0
:100C8000E02460610F21601700F07CFC0020A0616F
:100C900007202061002010BD704710F8391F4078F0
:100CA0000843704770B5026804461068D1685369FC
:100CB00010F00F0F50D003F0010501F4907635438A
:100CC0005DD0C20705D0CA0503D5E26B42F0010230
:100CD000E263420705D5DA0703D0E26B42F0020275
:100CE000E263820705D5DA0703D0E26B42F0040223
:100CF000E263020705D5DA0703D0E26B42F008028F
:100D0000E263E26B002A33D0800604D5880602D560
:100D1000204600F050FA20684069E16BC0F3801073
:100D2000090700D428B3204600F02AFA2068416958
:100D300049061AD5416921F040014161606BA0B1BB
:100D40001B490165606BFFF775FB002810D0606BD5
:100D5000016DBDE870400847830610D58B060ED59F
:100D60002046BDE8704000F026BA2046FFF794FF09
:100D700070BD2046FFF790FF0020E06370BD0306C2
:100D800006D50B0604D52046BDE8704000F0B4BB84
:100D90004006F3D54806F1D5D168204621F0400140
:100DA000D160202184F8391000F00BF970BD0000EB
:100DB0007111000870B5040004D094F839000025C2
:100DC00010B106E0012070BD84F83850204600F0D4
:100DD00023F8242084F839002068C16821F40051E8
:100DE000C160204600F032FA2068016921F4904188
:100DF00001612068416921F02A0141612068C168D0
:100E000041F40051C160E563202084F8390084F882
:100E10003A00002070BD000010B586B004461421D1
:100E20006846FFF705FA18492068884229D1174813
:100E3000016841F400210160006800F40020059081
:100E400012481038016841F00401016000686946E9
:100E500000F0040005904FF44060009002200190E3
:100E60000120029003200390082004900848FFF717
:100E700005FB002211463420FFF752FC3420FFF717
:100E800041FC06B010BD0000004C0040403802405C
:100E90000008024090F83A30202B22D1F9B1F2B18B
:100EA00090F83830012B1CD081628285C2850021E8
:100EB000C163222280F83A2080F838100168CA689D
:100EC00042F48072CA6001684A6942F001024A61D4
:100ED0000068C16841F02001C16000207047012016
:100EE0007047022070470000234900680968884263
:100EF00040D122480179012261B14179612908D0AC
:100F00004179622905D04179632902D04179642968
:100F100000D10270017839B3437800217BB1427867
:100F200012B34279302A1AD34279392A17D8427932
:100F3000C178134B0B44491CC1701A7014E04379FB
:100F4000302B07D34379392B04D84279C1780C4B25
:100F50000A3BEFE743790A2B06D1427003E042795E
:100F60000A2A01D10170C17004490122491D0248B9
:100F7000FFF790BF704700009400002000000020A1
:100F80008A00002090F83930202B18D1A9B1A2B1E5
:100F900090F83830012B12D001628284C284002183
:100FA000C163212280F8392080F838100068C168B8
:100FB00041F08001C160002070470120704702208D
:100FC00070477047FEE7000070B586B01421684690
:100FD000FFF72EF91A480024016841F080010160F2
:100FE000016801F080010591016841F0080101608C
:100FF000016801F008010591016841F001010160FB
:10100000016801F001010591016841F004010160EE
:1010100000680C4E00F004004FF47045059000226B
:1010200029463046FFF709FB01200095CDE9010470
:10103000694630460394FFF721FA06B070BD000000
:1010400030380240000C02400C4810B50A490160DB
:101050004FF4E1314160002181600C22C160C0E9A0
:1010600004128161C161FFF7A5FE002803D0BDE82D
:101070001040FFF7DEB910BD004C00409400002086
:10108000FEE7704770477047FFF7E2BA30B593B09C
:1010900030216846FFF7CCF814210CA8FFF7C8F8F8
:1010A00019480025016841F080510160006800F096
:1010B000805011901548016841F48041016000683A
:1010C000022400F48040119001200090000401905F
:1010D0008001CDE90640082008904FF4A870CDE9C2
:1010E000090404200B906846FFF734FC0CA90F207C
:1010F00081E831004FF4A0500F90109005210CA80A
:10110000FFF740FB13B030BD403802400070004094
:101110001048016841F4700101600F48016841F016
:10112000010101600C4A00210832116002680B4B7A
:101130001A400260031D0A4A1A60026822F48022E3
:10114000026005480C300160024958068039086089
:101150007047000088ED00E000380240FFFFF6FE17
:10116000103000240148FFF79DBD000094000020CE
:1011700010B5806B0021C185C184FFF78DFD10BDC6
:101180000168CA6822F49072CA6001684A6922F054
:1011900001024A61202180F83A10704770B5054677
:1011A0000C460846FFF74FF882B221462846BDE8B4
:1011B0007040FFF7E7BE10B590F83A10222901D031
:1011C000022010BD8168B1F5805F11D0016900294E
:1011D00001681FD0496801F07F03816A4A1C82625E
:1011E0000B70C18D491E0904090CC18518D02BE074
:1011F0000269816A002A0268526805D0D2B20A8068
:10120000816A491C8162ECE7C2F308020A80816AA4
:10121000891CF7E74A68816A4B1C83620A70E0E721
:101220000168CA6822F02002CA600168CA6822F414
:101230008072CA6001684A6922F001024A61202175
:1012400080F83A10FFF750FE002010BD2DE9F04164
:10125000044600680169E26821F4405111430161CC
:101260002169A068E2690843616911432268084363
:10127000D16849F20C6399430143D1602068416908
:10128000A26921F4407111434161E2696425B2F51C
:10129000004F9748974922684FF032083FD08A4262
:1012A00001D082427CD1FFF715FB00EBC00101EBBE
:1012B000001061688900B0FBF1F6FFF70BFB00EB53
:1012C000C00101EB001061688900B0FBF1F0B0FBD8
:1012D000F5F06FF01801484306EB800108EB0110B0
:1012E000B0FBF5F000F0F006FFF7F4FA00EBC001F8
:1012F00001EB001061688900B0FBF1F0B0FBF5F084
:1013000006EB0016FFF7E6FA00EBC00101EB001058
:1013100061688900B0FBF1F7FFF7DCFAD2E08A429E
:1013200001D082423DD1FFF7D5FA00EBC00101EBBD
:10133000001061684900B0FBF1F0B0FBF5F0060168
:10134000FFF7C8FA00EBC00101EB0010616849002B
:10135000B0FBF1F7FFF7BEFA00EBC00101EB0010A4
:1013600061684900B0FBF1F0B0FBF5F06FF01801D7
:10137000484307EB800108EBC100B0FBF5F000F03B
:10138000F80006EB4006FFF7A5FA00EBC00101EB01
:10139000001061684900B0FBF1F7FFF79BFA3CE0F1
:1013A00055E0FFF787FA00EBC00101EB0010616820
:1013B0004900B0FBF1F0B0FBF5F00601FFF77AFA57
:1013C00000EBC00101EB001061684900B0FBF1F7D0
:1013D000FFF770FA00EBC00101EB001061684900F3
:1013E000B0FBF1F0B0FBF5F06FF01801484307EBEC
:1013F000800108EBC100B0FBF5F000F0F80006EB4F
:101400004006FFF757FA00EBC00101EB00106168DE
:101410004900B0FBF1F7FFF74DFA00EBC00101EB1B
:10142000001061684900B0FBF1F0B0FBF5F06FF01F
:101430001801484307EB800108EBC100B0FBF5F051
:1014400000F00700216830448860BDE8F081FFF7B4
:1014500031FA00EBC00101EB001061688900B0FBBC
:10146000F1F6FFF727FA00EBC00101EB001061680D
:101470008900B0FBF1F0B0FBF5F06FF018014843C4
:1014800006EB800108EB0110B0FBF5F000F0F00670
:10149000FFF710FA00EBC00101EB00106168890052
:1014A000B0FBF1F0B0FBF5F006EB0016FFF702FA27
:1014B00000EBC00101EB001061688900B0FBF1F79F
:1014C000FFF7F8F900EBC00101EB0010616889003B
:1014D000B0FBF1F0B0FBF5F06FF01801484307EBFB
:1014E000800108EB0110B0FBF5F000F00F00A9E758
:1014F000001401400010014090F83910212901D05A
:10150000022070478168B1F5805F016A0BD04A1CE8
:101510000262026809785160C18C491E0904090CF5
:10152000C1840ED017E009880268C1F30801516038
:1015300001690029016A02D0491C0162ECE7891C9B
:10154000FBE70168CA6822F08002CA600068C168CF
:1015500041F04001C16000207047FEE70FB4084B26
:1015600010B504A902AA039800F030F8044602A9B5
:10157000002000F0D5F8204610BC5DF814FB0000F8
:10158000211700080907090E002804DB00F1E020FC
:1015900080F80014704700F00F0000F1E02080F8A0
:1015A000141D7047004870471800002002E008C86A
:1015B000121F08C1002AFAD170477047002001E0CD
:1015C00001C1121F002AFBD1704700002DE9FF4F17
:1015D00089B09B460446002506E025280BD05A46D4
:1015E0000B999047641C6D1C20780028F5D10DB034
:1015F0002846BDE8F08F0027B8460122474900E0A1
:10160000074314F8013F203B02FA03F00842F7D1E8
:1016100020782E2819D114F8010F47F004072A2842
:101620000ED06FF02F022078A0F1300109290CD8DC
:1016300008EB880102EB410100EB0108641CF2E7B2
:101640000A98641C50F8048B0A9020780028CED0A9
:10165000642808D0692806D075281ED05A460B99F0
:1016600090476D1C58E00A994FF00A0901C90A9188
:10167000002802DA40422D2102E0390504D52B2151
:101680008DF82010012103E0F90704D02021F7E7AD
:101690008A4608AE0DE00021FAE70A994FF00A09E0
:1016A00001C90A91F7E74946FEF7E1FD303106F836
:1016B000011D0028F7D1ADEB060000F120097807E5
:1016C00001D44FF00108C84502DDA8EB090000E095
:1016D00000208046002706E008A85A46C05D0B9906
:1016E00090476D1C7F1C5745F6DB04E030205A46BE
:1016F0000B9990476D1CB8F10001A8F10108F5DCC9
:1017000005E016F8010B5A460B9990476D1CB9F18C
:101710000001A9F10109F4DC641C65E70928010056
:101720000A68531C0B6010707047000010B51CA1B4
:101730002248FFF713FF21492148FFF72FFD2048DA
:10174000FFF7ABFA2228FAD11EA11C48FFF706FFCB
:101750001A491B48FFF722FD1948FFF79EFA222875
:10176000FAD11CA11548FFF7F9FE14491448FFF7F8
:1017700015FD1348FFF791FA2228FAD11CA10F4852
:10178000FFF7ECFE0D490E48FFF708FD0C48FFF788
:1017900084FA2228FAD11D4841791B29FCD110BDB9
:1017A000312E2053747564656E7420496E666F72B5
:1017B0006D6174696F6E730A000000001C000020E8
:1017C0009400002049443A203136353230393436DD
:1017D0000A00000046756C6C204E616D653A204C25
:1017E0006520486F616E6720506875630A000000CD
:1017F0004553433A2052657475726E207072657657
:10180000696F7573206D656E750A00000000002019
:1018100010B500F0CBF916484179612908D041791B
:10182000622905D04179632902D041796429F3D135
:101830004079622811D006DC1B2814D0612816D10B
:1018400000F0D6FA05E063280AD064280FD100F032
:1018500061F8BDE8104000F04FBB00F063FBF8E713
:1018600000F040FAF5E7BDE8104000F09FB910BD68
:10187000000000202DE9F0471BA12248FFF76EFE73
:1018800020492148FFF78AFC1F48FFF706FA222863
:10189000FAD14FF480561D4C1D4D77004FF480480F
:1018A0004FF4004968791B281CD031462046FEF7CA
:1018B000BDFEC820FEF7D0FD39462046FEF7B6FE35
:1018C000C820FEF7C9FD41462046FEF7AFFEC820FE
:1018D000FEF7C2FD49462046FEF7A8FEC820FEF7E7
:1018E000BBFDDFE7BDE8F0874553433A20526574FE
:1018F00075726E2070726576696F7573206D656E96
:10190000750A00001C00002094000020000C02401A
:101910000000002070B52BA12D48FFF71FFE2C49B9
:101920002C48FFF73BFC2B48FFF7B7F92228FAD1E8
:1019300029A12748FFF712FE25492648FFF72EFC6C
:10194000284C2448FFF7A9F92228FAD1607800280A
:10195000FCD025A11E48FFF701FE1D491D48FFF7D9
:101960001DFC1C48FFF799F92228FAD1207800289D
:10197000FCD117486430FEF76DFC054614486E3004
:10198000FEF768FC95FBF0F21AA11148FFF7E6FD9F
:101990000F491048FFF702FC0E48FFF77EF9222896
:1019A000FAD117A10A48FFF7D9FD09490948FFF7FD
:1019B000F5FB0848FFF771F92228FAD160791B2856
:1019C000FCD170BD642E204469766964650A00000C
:1019D0001C000020940000204F706572616E64202E
:1019E000313A2000000000204F706572616E642063
:1019F000323A2000526573756C743A2025640A00EF
:101A00004553433A2052657475726E207072657644
:101A1000696F7573206D656E750A0000FEF720FE14
:101A2000FFF734FBFFF7D0FAFFF70EFB0122114955
:101A30001148FFF72FFA00F021F80E4C012600257F
:101A4000641F60791B2811D0312807D0322809D0B3
:101A50003328F6D12571FFF70DFFF2E72571FFF767
:101A600065FEEEE72671FFF7D3FEEAE700F006F821
:101A7000E7E70000050000209400002010B529A130
:101A80003048FFF76BFD2F492F48FFF787FB2E48A3
:101A9000FFF703F92228FAD12CA12A48FFF75EFDAF
:101AA00028492948FFF77AFB2748FFF7F6F822284C
:101AB000FAD12DA12348FFF751FD22492248FFF713
:101AC0006DFB2148FFF7E9F82228FAD12BA11D4828
:101AD000FFF744FD1B491C48FFF760FB1A48FFF75E
:101AE000DCF82228FAD129A11648FFF737FD15495D
:101AF0001548FFF753FB1448FFF7CFF82228FAD117
:101B000026A11048FFF72AFD0E490F48FFF746FBB4
:101B10000D48FFF7C2F82228FAD123490020487166
:101B200010BD000043686F6F736520796F75722078
:101B30006F7074696F6E28312C322C332C202E2E4E
:101B40002E290A001C00002094000020312E205372
:101B5000747564656E7420496E666F726D61746928
:101B60006F6E730A00000000322E204261736963B9
:101B7000204F7065726174696F6E0A00332E2053B6
:101B8000696D706C65204C65640A0000342E20413C
:101B90006476616E6365204C65640A00352E2041D1
:101BA0007564696F0A0000000000002010B52EA1C6
:101BB0003248FFF7D3FC31493148FFF7EFFA30489C
:101BC000FFF76BF82228FAD12EA12C48FFF7C6FCAC
:101BD0002A492B48FFF7E2FA2948FFF75EF8222846
:101BE000FAD12BA12548FFF7B9FC24492448FFF777
:101BF000D5FA2348FFF751F82228FAD128A11F4827
:101C0000FFF7ACFC1D491E48FFF7C8FA1C48FFF758
:101C100044F82228FAD126A11848FFF79FFC17495B
:101C20001748FFF7BBFA1648FFF737F82228FAD112
:101C300022A11248FFF792FC10491148FFF7AEFAB3
:101C40000F48FFF72AF82228FAD11FA10B48FFF707
:101C500085FC0A490A48FFF7A1FA0948FFF71DF871
:101C60002228FAD110BD0000322E20426173696330
:101C7000204F7065726174696F6E0A001C0000204D
:101C800094000020612E20506C75730A0000000043
:101C9000622E2053756274726163740A0000000042
:101CA000632E204D756C7469706C650A000000002D
:101CB000642E204469766964650A0000652E204D13
:101CC0006F64756C650A00004553433A2052657491
:101CD00075726E2070726576696F7573206D656EB2
:101CE000750A000070B52BA12E48FFF737FC2D496F
:101CF0002D48FFF753FA2C48FEF7CFFF2228FAD1E0
:101D00002AA12848FFF72AFC26492748FFF746FA68
:101D1000294C2548FEF7C1FF2228FAD16078002817
:101D2000FCD026A11F48FFF719FC1E491E48FFF7EB
:101D300035FA1D48FEF7B1FF2228FAD12078002895
:101D4000FCD118486430FEF785FA054615486E3018
:101D5000FEF780FA05FB00F21BA11248FFF7FEFB1D
:101D600010491148FFF71AFA0F48FEF796FF22288C
:101D7000FAD118A10B48FFF7F1FB0A490A48FFF70F
:101D80000DFA0948FEF789FF2228FAD160791B284D
:101D9000FCD170BD632E204D756C7469706C650A42
:101DA000000000001C000020940000204F706572AD
:101DB000616E6420313A2000000000204F7065728F
:101DC000616E6420323A2000526573756C743A205B
:101DD00025640A004553433A2052657475726E209B
:101DE00070726576696F7573206D656E750A000097
:101DF00070B52BA12D48FFF7B1FB2C492C48FFF7FC
:101E0000CDF92B48FEF749FF2228FAD129A127480E
:101E1000FFF7A4FB25492648FFF7C0F9284C2448C2
:101E2000FEF73BFF2228FAD160780028FCD025A1DC
:101E30001E48FFF793FB1D491D48FFF7AFF91C48EB
:101E4000FEF72BFF2228FAD120780028FCD1174872
:101E50006430FEF7FFF9054614486E30FEF7FAF9D4
:101E60002A181BA11148FFF779FB10491048FFF70A
:101E700095F90F48FEF711FF2228FAD117A10B4858
:101E8000FFF76CFB09490A48FFF788F90848FEF795
:101E900004FF2228FAD160791B28FCD170BD000014
:101EA000612E20506C75730A000000001C00002099
:101EB000940000204F706572616E6420313A2000FA
:101EC000000000204F706572616E6420323A20007D
:101ED000526573756C743A2025640A004553433A81
:101EE0002052657475726E2070726576696F7573B5
:101EF000206D656E750A0000084900200870487062
:101F000088700871C870064B014603F10A025854E4
:101F10005054491C0A29FADB7047000000000020D9
:101F20008000002070B52BA12E48FFF717FB2D492C
:101F30002D48FFF733F92C48FEF7AFFE2228FAD1DF
:101F40002AA12848FFF70AFB26492748FFF726F968
:101F5000294C2548FEF7A1FE2228FAD160780028F6
:101F6000FCD026A11F48FFF7F9FA1E491E48FFF7CB
:101F700015F91D48FEF791FE2228FAD12078002895
:101F8000FCD118486430FEF765F9054615486E30F7
:101F9000FEF760F92A1A1CA11248FFF7DFFA11496F
:101FA0001148FFF7FBF81048FEF777FE2228FAD118
:101FB00018A10C48FFF7D2FA0A490B48FFF7EEF8D0
:101FC0000948FEF76AFE2228FAD160791B28FCD165
:101FD00070BD0000622E2053756274726163740AD2
:101FE000000000001C000020940000204F7065726B
:101FF000616E6420313A2000000000204F7065724D
:10200000616E6420323A2000526573756C743A2018
:1020100025640A004553433A2052657475726E2058
:1020200070726576696F7573206D656E750A000054
:102030000000000000000000010203040607080978
:1020400000000000010203040040404040404040C6
:10205000404041414141414040404040404040407B
:10206000404040404040404040050202020202021F
:10207000020202020202020202202020202020206E
:102080002020200202020202020290909090909082
:102090001010101010101010101010101010101040
:1020A00010101010020202020202888888888888B4
:1020B00008080808080808080808080808080808A0
:1020C0000808080802020202400000004920000837
:1020D000F0200008000000201C000000AC150008E3
:1020E0000C2100081C000020BC040000BC150008E6
:1020F00000000000000000000100000010000000CF
:0C210000000000000024F40000000000BB
:040000050800018965
:00000001FF
